:020000040800F2
:10000000C8070020450100088D130008510E0008A4
:1000100069110008FD0A0008651D000800000000C5
:100020000000000000000000000000008916000829
:10003000010B00080000000015140008011D000855
:100040005F0100085F0100085F0100085F01000810
:100050005F0100085F0100085F0100085F01000800
:100060005F0100085F0100085F0100085F010008F0
:100070005F0100085F0100085F0100085F010008E0
:100080005F0100085F0100085F0100085F010008D0
:100090005F0100085F0100085F0100085F010008C0
:1000A0005F0100085F0100085F0100085F010008B0
:1000B0005F0100085F0100085F0100085F010008A0
:1000C0005F0100085F0100085F0100085F01000890
:1000D0005F0100085F0100085F0100085F01000880
:1000E000050B00085F0100085F0100085F010008C0
:1000F0005F0100085F0100085F0100085F01000860
:100100005F0100085F0100085F0100085F0100084F
:100110005F0100085F0100085F0100085F0100083F
:100120005F0100085F0100085F0100085F0100082F
:10013000DFF80CD000F03AFB0048004779210008B6
:10014000C80700200648804706480047FEE7FEE74C
:10015000FEE7FEE7FEE7FEE7FEE7FEE7FEE7FEE777
:10016000051D0008310100080649074A0868504388
:1001700043F23902104408604008704701490860A2
:1001800070470000640000206D4EC641D2B201E00D
:1001900000F8012B491EFBD270470022F6E710B58C
:1001A00013460A4604461946FFF7F0FF204610BDE5
:1001B0002DE9FE4F81EA030404F0004421F00041E0
:1001C00000944FF0000B23F0004350EA01045ED08E
:1001D00052EA03045BD0C3F30A54C1F30A552C441A
:1001E000A4F2F3340194A0FB0254C1F3130141F4CF
:1001F0008011C3F3130343F4801301FB024400FB9B
:10020000034E840A970A44EA815447EA8357A4FBC1
:10021000076802958D0A05FB07854FEA932C04FBBE
:100220000C542705029D4FEA065847EA1637B5EBEE
:1002300008056EEB070C870E920E47EA811742EA1B
:100240008312A7FB0201B6EB0B0164EB00042B0D3C
:1002500043EA0C335E1844EB1C50DA465146E7FB88
:100260000201C5F313044FEA0B3343EA14534FEA78
:100270000432019C43EA0603A4F10C040294009C9E
:10028000CDE900B400F034F903B0BDE8F08F0020F0
:100290000146F9E72DE9F04D81EA030404F0004B33
:1002A00021F0004514464FF0000A23F0004150EAC7
:1002B000050220D054EA01021DD0C5F30A570246B8
:1002C000C5F31303C1F31300C1F30A5640F48015BC
:1002D00043F48013A7EB0608101BD64608F2FD383E
:1002E00073EB050002D308F1010801E092185B41AD
:1002F000B8F1000F03DA00200146BDE8F08D0020C0
:100300004FF48011064684460EE0171B73EB050779
:1003100005D3121B63EB050306434CEA010C4908A5
:100320004FEA300092185B4150EA0107EDD152EAE2
:10033000030012D082EA040083EA0501084305D0D5
:10034000101BAB4106D20122002306E000224FF031
:10035000004302E06FF0010253101AEB06004CEB71
:10036000085110EB0A0041EB0B01BDE8F04D00F025
:10037000B0B8C10F80EAE0700844CA079623002194
:1003800000F079B80EB5C10F80EAE0700844CA07E2
:10039000002140F233438DE80E000A460B4600F080
:1003A000A7F803B000BD00F0004230F000400AD0D2
:1003B000C10D01F56071C0F3160042EA0151C20897
:1003C00040071143704700200146704730B5041EB6
:1003D00071F1000404DB4FF00044404264EB010182
:1003E000141E73F1000405DB1C464FF0004352421B
:1003F00063EB04038B4208BF824230BD30B5041E5C
:1004000071F1000404DB4FF00044404264EB010151
:10041000141E73F1000405DB1C464FF000435242EA
:1004200063EB0403994208BF904230BD01F00043E2
:1004300030B421F0004150EA010206D00A0DA2F5C5
:100440006072C1F31301002A02DC30BC0020704747
:10045000440F44EAC104C100E01830BC00EBC250B4
:10046000AFF300800029A8BF7047401C490008BFB7
:1004700020F00100704710B4B0FA80FC00FA0CF0D4
:1004800050EA010404BF10BC704749B1CCF120040C
:1004900021FA04F411FA0CF118BF01212143084399
:1004A000A3EB0C01CB1D4FEA00614FEA102042BFC5
:1004B000002010BC704700EBC35010440029A4BFBB
:1004C00010BC7047401C490008BF20F0010010BC60
:1004D000704710B5141E73F1000408DA401C41F196
:1004E000000192185B411A4301D120F0010010BDB8
:1004F0002DE9F04D92469B4611B1B1FA81F202E02E
:10050000B0FA80F22032904600F062F904460F46BD
:1005100040EA0A0041EA0B0153465A46084313D009
:10052000114653EA010019D0C8F14002504600F0CC
:100530005EF905460E4650465946424600F048F9D7
:10054000084305D0012004E020463946BDE8F08D7F
:100550000020054346EAE0762C4337430A986305BA
:10056000E40AA0EB08000022FD0A44EA47540A30DE
:1005700002D500200146E9E7010510196941DDE9CE
:10058000084500196941BDE8F04DA2E72DE9FE4F8D
:10059000804681EA0300C00F0C46009021F0004124
:1005A00023F00045B8EB0200A94105D240462146A0
:1005B00090461C460B46024623F00040104347D0AD
:1005C000270DC7F30A00C3F30A510290401A0190A5
:1005D00040286BDAC3F3130040F4801B0098924666
:1005E00020B10023D2EB030A63EB0B0B01985946B1
:1005F000C0F14002504600F0EBF806460D4650466A
:100600005946019A00F003F910EB080061410024FB
:1006100087EA115284EAE7731A4340D0009A62B322
:10062000019A012A4FEA075215DC001B61EB020117
:100630004FF0004202EA0752CDE90042001C41F5AA
:10064000801132462B46FFF753FF03B0BDE8F08F11
:1006500040462146F9E7001B61EB0201001C41F511
:10066000801300185B412018A2F5001747EB030127
:1006700040EAD570B6196D4111E06D084FEA3606B3
:1006800045EAC0754FEA0752001B61EB0201001CEE
:1006900041F5801149084FEA3000001951413246B6
:1006A0002B4603B0BDE8F04FFFF713BF00980122BF
:1006B00040000023D0EB020263EBE0730098214678
:1006C0004FEAE074B8EB000061EB0401E9E783F066
:1006D00000435BE781F0004158E770B521F000432B
:1006E00003430CD0C1F30A550024D5EB040564EB99
:1006F0000403D617AD1AB34102DB0020014670BDDA
:10070000201841EB025170BD2DE9F04D00231A462F
:100710001B1A8A4103DB00200146BDE8F08DC1F3BE
:100720000A52C1F3130141F480154FF0000BD107B9
:1007300002D100186D41521E0027044640F2FF11FD
:10074000384601EB620A3E468046024600204FF4DE
:10075000801100F04CF8C2197141BB1846EB010042
:10076000B4EB030C75EB000C04D3E41A65EB000545
:1007700017460E46241908F101006D4180463428C1
:10078000E3DDF91946EB0600091BA84103D24FF03F
:10079000FF32134601E0002213461BEB070046EB35
:1007A0000A51BDE8F04DFFF794BE0000064C074D1E
:1007B00006E0E06840F0010394E807009847103431
:1007C000AC42F6D3FFF7B8FC80290008A029000846
:1007D000202A04DB203A00FA02F100207047914001
:1007E000C2F1200320FA03F3194390407047202AF6
:1007F00004DB203A21FA02F00021704721FA02F3CB
:10080000D040C2F120029140084319467047202A87
:1008100006DBCB17203A41FA02F043EAE07306E028
:1008200041FA02F3D040C2F1200291400843194638
:100830007047F0B589B006460F46154600240B20D8
:100840008DF804008DF8057000BF05E0315D01AA48
:10085000A01C1154601CC4B2AC42F7DBA81CC2B28D
:1008600001A9012000F0D6FE002405E001A9A01C8A
:10087000085C3055601CC4B2AC42F7DB09B0F0BD77
:100880002DE9F04F87B000200690059004900120DC
:1008900000F0B2F804AA05A906A800F069F8BDF9AD
:1008A0001800FFF766FD8046FFF77DFD06462B4AE0
:1008B0002B4BFFF77DFC0446FFF7B8FD2949086084
:1008C000BDF91400FFF755FD8046FFF76CFD0646A5
:1008D000224A234BFFF76CFC0446FFF7A7FD214992
:1008E0004860BDF91000FFF744FD8046FFF75BFD4F
:1008F00006461A4A1A4BFFF75BFC0446FFF796FDC3
:1009000018498860BDF91000FFF73CFD8046894614
:10091000BDF918104943BDF9142002FB0210FFF77E
:1009200031FDCDE9000101F0B7FF824642464B465A
:10093000FFF7B0FC064601F0A1FA04460A4A0B4B49
:10094000FFF736FCCDE90201FFF770FD0549C860ED
:10095000002000F051F807B0BDE8F08FFCA9F1D2FB
:100960004D62503FB40300207D96E7C1DDA54C40A9
:100970007CB506460C4615460020009001900622E4
:100980000E216846FFF755FF9DF800009DF8011005
:1009900000EB012000B230809DF802009DF80310AA
:1009A00000EB012000B220809DF804009DF80510A6
:1009B00000EB012000B228807CBD000038B500208B
:1009C00000900024012300220A49104600F0CCFDCB
:1009D0000446012200216846FFF72BFF0122022175
:1009E0006846FFF726FF9DF80000F22800D000249B
:1009F000204638BD00093D0038B50446002000906F
:100A0000002501222D216846FFF713FF9DF8000005
:100A100020F0030545EA4400C5B201222D212846F5
:100A200000F001F838BDF8B504460D461646002022
:100A300000900A208DF800008DF80150E0B28DF88A
:100A4000020020128DF80300B01CC2B269460120DA
:100A500000F0FEFDF8BD10B500F088FB10BD70B5CC
:100A6000044600F007FCA02000F064FC00F036FC17
:100A7000204600F05FFC00F031FC00F0FBFBA12001
:100A800000F058FC00F02AFC002000F08DFB054629
:100A900000F00AFC284670BD70B505460C4600F013
:100AA000E9FBA02000F046FC00F018FC284600F00E
:100AB00041FC00F013FC204600F03CFC00F00EFC72
:100AC00000F0F2FB70BD000008B50121082000F025
:100AD000A3FC10208DF803000820ADF800000120D1
:100AE0008DF802006946044800F01AF9082002490E
:100AF0001431086008BD0000000C014000BFFEE793
:100B00007047000010B500240A2001F0E9FA4FF404
:100B1000006000F087F801280BD04FF4805000F0FF
:100B200081F8012805D04FF4005000F07BF801282F
:100B300063D134480078C8B13348806800F400605D
:100B4000A0B932490978481CC11700EB917189108E
:100B5000A0EB81012D4A1170CB21002000F0AEFAEC
:100B60002A4909783131C8B200F07CFA254800786A
:100B700060B12548806800F4805038B92448007876
:100B800008B9012000E00020214908701E48806853
:100B900000F4005088BB04E00A2001F0A1FA601CB8
:100BA00084B21948806800F400500028F4D0C82CA2
:100BB0000EDA00F0CBFE012015490870002015491F
:100BC000087001200F49087000201049087014E0D7
:100BD00000210846FFF760FF022001F081FA00F0D3
:100BE000B5FE01200A49087000200A49087001205A
:100BF000044908700020054908704FF4605000F067
:100C00000BF810BD03000020001001400000002080
:100C10000100002002000020014908607047000028
:100C200014040140014600200022074B1B6803EA20
:100C30000102054B14331B680B4013B10AB10120AC
:100C400000E000207047000000040140002123491B
:100C50008279002A3AD00A46126803689A430B4602
:100C60001A600A1D126803689A430B1D1A60027904
:100C700011440A6803681A430A60184A0832126865
:100C800003689A43154B08331A601A1D12680368EB
:100C90009A43124B0C331A604279102A0ED11A1F54
:100CA000126803681A430D4B08331A601A1D126844
:100CB00003681A43094B0C331A600DE00749427967
:100CC00011440A6803681A430A6005E00279114476
:100CD0000A6803689A430A607047000000040140F4
:100CE00030B500228B071C0F0F2303FA04F20B4BC5
:100CF0008C1053F824309343084C8D1044F8253061
:100D000023468C1053F824308C07240F00FA04F487
:100D10002343024C8D1044F8253030BD08000140BB
:100D20002DE9F04102460025002600200023002482
:100D3000002791F803C00CF00F0591F803C00CF0E8
:100D4000100CBCF1000F03D091F802C04CEA05056D
:100D500091F800C0BCF1000F31D0146800202BE0E6
:100D60004FF0010C0CFA00F3B1F800C00CEA0306D6
:100D70009E4220D183004FF00F0C0CFA03F7BC43C6
:100D800005FA03FC4CEA040491F803C0BCF1280FF7
:100D900006D14FF0010C0CFA00FCC2F814C00AE0B6
:100DA00091F803C0BCF1480F05D14FF0010C0CFACB
:100DB00000FCC2F810C0401C0828D1D31460B1F860
:100DC00000C0BCF1FF0F34DD546800202EE000F1BC
:100DD000080C4FF0010808FA0CF3B1F800C00CEA57
:100DE00003069E4221D183004FF00F0C0CFA03F74B
:100DF000BC4305FA03FC4CEA040491F803C0BCF1BF
:100E0000280F05D100F1080C08FA0CF8C2F814807C
:100E100091F803C0BCF1480F07D100F1080C4FF066
:100E2000010808FA0CF8C2F81080401C0828CED33C
:100E30005460BDE8F0810246002093680B400BB17E
:100E4000012000E000207047416170470161704758
:100E500000BFFEE710B501F021F900F063F8FFF7DD
:100E6000FAFD00F073FDFFF7A9FD00F007F8FFF7AA
:100E70002BFE4FF4A06000F0C3FA10BD1FB5012196
:100E8000102000F0C9FA4FF46050ADF804000420BF
:100E90008DF8070001A91848FFF742FF0121084615
:100EA00000F0BAFA0B210220FFF71AFF0C210220F2
:100EB000FFF716FF0D210220FFF712FF4FF46050DD
:100EC000029000208DF80C000C208DF80D00012000
:100ED0008DF80E0002A8FFF7B9FE28208DF800005B
:100EE00002208DF801008DF8020001208DF803002A
:100EF000684600F04DFA1FBD0010014070B5054670
:100F00000621012000F0DAF84021012000F0D6F897
:100F1000002404E0285D00F0A5F8601CC4B2402C59
:100F2000F8DB70BD10B53848806940F01D003649C7
:100F300088613648406820F0E060344948600846DF
:100F4000406840F00070486031480068314908400E
:100F50002F490860084600682F4908432C4908605B
:100F60002E48006880B22D490860084600682C4968
:100F700008432A490860081D006820F0FF00091D89
:100F800008600846006840F03300086025480068A3
:100F900020F47040234908600846006840F440503F
:100FA00008600F2001F09CF83821002000F086F83E
:100FB000052001F095F83821002000F07FF8052089
:100FC00001F08EF83821002000F078F83821012057
:100FD00000F074F80821012000F070F801210846A3
:100FE00000F06CF80621012000F068F80C210120C7
:100FF00000F064F809481430006840F01000074918
:101000001431086010BD00000010024000000140D3
:101010000010014000F0FFF033030003000C01401A
:10102000000033330408014070B504460B480068E3
:1010300085B225F478750A48C06886B226F007069E
:1010400004F01F0045EA401546EA541603480560BF
:101050000348C6600A2001F069F870BD0C0C01401D
:101060000010014010B504461148006940F04000EE
:101070000F4908610F48006840F400600D4908609E
:101080002046FFF7D1FF0C48006840F010000A49E5
:101090000860142001F04AF80748001D006840F07D
:1010A00010000549091D0860052001F03FF810BD3A
:1010B0000010014014080140100C014070B50546B5
:1010C0000C461DBB2548406940F04000234948615B
:1010D0002348006840F40060214908602046FFF77B
:1010E000A3FF2048006840F010001E49086014204B
:1010F00001F01CF81B48001D006840F01000194961
:10110000091D0860052001F011F825E00A2000F013
:10111000E7FF1248406940F040001049486110481C
:10112000006840F400600E4908602046FFF77CFF2D
:101130000C48006840F010000A490860142000F0D4
:10114000F5FF0848001D006840F010000549091D22
:101150000860052000F0EAFF70BD000000100140AB
:1011600014080140100C014000BFFEE708B5012142
:10117000082000F051F914208DF803004FF440606E
:10118000ADF8000003208DF8020069460548FFF71E
:10119000C7FD4FF40060034910310860401008603B
:1011A00008BD0000000C014070B5064600254FF454
:1011B00000601549086000241CE04FF4806012496B
:1011C0000860042000F0B2FF4FF400610E481038B0
:1011D000FFF731FE2844C5B24FF480600A49091D6B
:1011E0000860042000F0A2FF072C01D06806050E5D
:1011F000601CC4B2082CE0DB16B900F021F801E055
:1012000000F004F8284670BD100C014010B54FF4F2
:1012100080600A49086040000860042000F086FFF2
:101220004FF480600549091F0860042000F07EFF2C
:101230004FF480600149086010BD0000140C0140AB
:1012400010B54FF480600A4908604000091F08602B
:10125000042000F06BFF4FF480600549091F08600F
:10126000042000F063FF4FF480600149086010BD66
:10127000140C014010B54FF400600A49086040109A
:101280000860042000F052FF4FF400600549091D7A
:101290000860042000F04AFF4FF480600149091DF6
:1012A000086010BD100C014010B54FF400600A49F1
:1012B00008604010091F0860042000F037FF4FF459
:1012C00000600549091F0860042000F02FFF4FF45B
:1012D00080600149086010BD140C014070B5C8253C
:1012E0004FF400601249086040100860042000F0CC
:1012F0001DFF281EA5F10101CDB211D04FF40061F0
:101300000B481038FFF797FD044634B94FF480605E
:101310000749091D0860012070BD012000F0E0FEB2
:101320004FF480600249091D08600020F4E70000C6
:10133000100C014070B504464FF4806012490860FB
:1013400000251EE0E00928B14FF400600E49091F96
:10135000086003E04FF400600B490860042000F0CF
:10136000E5FE4FF480600849091F0860042000F082
:10137000DDFE4FF48060044908606006040E681CBE
:10138000C5B2082DDEDB70BD140C014070470000B3
:1013900070B5002100230F22C47804B3154C2468D3
:1013A00004F4E064C4F5E064210AC1F10403CA4016
:1013B000447804FA03F184781440214309010E4C67
:1013C0000678A155047804F01F050124AC40057887
:1013D0006D11AD0005F1E025C5F8004109E0047884
:1013E00004F01F050124AC40044D0678761145F841
:1013F000264070BD0CED00E000E400E080E100E07C
:1014000002490143024A1160704700000000FA05DA
:101410000CED00E07047000029B1064A92690243D2
:10142000044B9A6104E0034A92698243014B9A613A
:10143000704700000010024001460020034A506837
:1014400020F4605040EAC100506070470010024034
:1014500000B587B04FF48060FFF7EEFF012141F245
:101460000400FFF7D9FFA020ADF8180003208DF885
:101470001A0018208DF81B0006A91B48FFF750FC26
:101480004020ADF8180004208DF81B0006A916486E
:10149000FFF746FC0020ADF804004FF48270ADF871
:1014A00006000020ADF808000220ADF80A00012077
:1014B000ADF80C004002ADF80E000820ADF81000A9
:1014C0000020ADF812000720ADF8140001A907486C
:1014D00000F082F80121054800F064F8FF2000F0D8
:1014E00007F807B000BD00000008014000300140CF
:1014F00070B50546002405E0601CC4B2C82C01DDAF
:10150000002070BD02210E4800F058F80028F3D0EA
:10151000002429460A4800F05DF805E0601CC4B2CA
:10152000C82C01DD0020ECE70121054800F046F859
:101530000028F3D0024800F04AF8C0B2E1E700000A
:101540000030014010B586B00446ADF8104001A946
:10155000044800F041F80121024800F023F806B0E9
:1015600010BD000000300140F8B504460D46164697
:101570001F4601210420FFF74FFF1020ADF80000A7
:101580008DF8030003208DF8020069460448FFF738
:10159000C7FBFFF75DFF1020FFF7D4FF0120F8BD68
:1015A0000008014021B1028842F04002028004E0BC
:1015B00002884FF6BF731A4002807047024600202F
:1015C00013890B400BB1012000E000207047014659
:1015D000888970478181704710B50022028802F423
:1015E00041520B884C8823438C882343CC88234367
:1015F0000C8923434C8923438C892343CC8923437F
:101600001A430280838B4FF2FF74234083830B8A3B
:10161000038210BD2DE9F04107460D461646002411
:1016200010210A48FFF710FC00BF05E0285DFFF716
:101630005FFF2855601CC4B2B442F7DB1021034899
:10164000FFF704FC2046BDE8F081000000080140DF
:101650002DE9F04107460D461646002410210948A1
:10166000FFF7F2FB00BF04E0285DFFF741FF601CBD
:10167000C4B2B442F8DB10210248FFF7E7FB204672
:10168000BDE8F08100080140704710B500F002F895
:1016900010BD00000CB50020019000903348006898
:1016A00040F480303149086000BF3048006800F4E1
:1016B000003000900198401C0190009818B90198E2
:1016C000B0F5A06FF1D12948006800F4003010B1E6
:1016D0000120009001E0002000900098012843D1F3
:1016E0002348006840F0100021490860084600685F
:1016F00020F0030008600846006840F0020008601F
:101700001A484068194948600846406848600846D9
:10171000406840F4806048600846406820F47C10CF
:1017200048600846406840F48810486008460068F1
:1017300040F08070086000BF0C48006800F0007046
:101740000028F9D00948406820F0030007494860A4
:101750000846406840F00200486000BF0348406807
:1017600000F00C000828F9D10CBD00000010024068
:10177000002002400E48B0F80003401C0C49085CF1
:10178000001DB1F800130A4A505400211046B0F869
:101790000023FF308154FF38B0F80003401C054996
:1017A000095C0348B0F800230248815470470000E8
:1017B0006C0000206A0200202DE9F0418046B8F15B
:1017C000000F35D0FEF7D0FC87B2642197FBF1F112
:1017D0000A2291FBF2F302FB1310C11700EB5171C7
:1017E000C910A0EBC101CCB20A2097FBF0F00A218E
:1017F00090FBF1F201FB1200052190FBF1F201FBDD
:101800001200C6B20A2197FBF1F201FB1270C11758
:1018100000EB5171C910A0EBC101CDB2642060434F
:1018200006EB860100EB410028441B49A1F80203A6
:101830001948B0F80203642190FBF1F0C4B21648D5
:10184000B0F802030A2190FBF1F090FBF1F201FBEA
:101850001200C6B21048B0F8020390FBF1F201FB8F
:101860001200C5B205EBC4000C49085C10213141DF
:10187000084018B10120FFF79FFF0AE005EBC40004
:101880000649095C10203041084405EBC401034AB5
:101890005054BDE8F08100006C000020720300206D
:1018A00030B5002045E02649B1F800130144FC2280
:1018B00091FBF2F302FB13122149FF318A5CFF39DD
:1018C000B1F800130144FC2391FBF3F403FB141162
:1018D0001B4B595C02EBC1011A4A515C1A46B2F823
:1018E00000230244FC2392FBF3F403FB1423164A67
:1018F000D35C10221A411143114AB2F8002302446A
:10190000FC2392FBF3F403FB14230D4AFF32D35C58
:10191000FF3AB2F800230244FC2492FBF4F504FBE6
:101920001522074CA25C03EBC202064B9954411CE2
:10193000C8B2034991F8FD128142B4DC30BD000009
:101940006C000020720300206A02002010B5002005
:10195000114981F8FB0001210F4880F8F91280F845
:10196000FA1100200C4981F8FC0001210A4880F896
:10197000FA1280F8FB110120074981F8FD0281F875
:10198000FE02FB20A1F800030020FFF768F80249DF
:1019900081F8040310BD00006C0000207848B0F806
:1019A0000023FF30805C00285CDD7548B0F8002320
:1019B000FF30805C072855DA7148B0F8002300F545
:1019C000FF70805C04284DDA6D48B0F8002300F504
:1019D000FF70805C002845DD01213CE06848B0F8DC
:1019E00000030844FC2290FBF2F302FB1300644A5C
:1019F000105CB2F80023624B9A5C904200D028E061
:101A00005F48B0F800030844FC2290FBF2F302FBAD
:101A100013025B48FF30825CFF38B0F80033FF30C0
:101A2000C05C824200D014E05548B0F8000308447E
:101A3000FC2290FBF2F302FB13025248825C5048F6
:101A4000B0F800334F48C05C824200D001E0012072
:101A50007047481CC1B24A4890F8FD028842BDDC7C
:101A60000020F5E74648B0F80003454A105C01281D
:101A700005D01046B0F80003105C022808D1404899
:101A8000B0F80023FF30805C002877D10120DFE729
:101A90003B48B0F800033A4A105C052805D01046D0
:101AA000B0F80003105C062808D13548B0F80023D0
:101AB000FF30805C072861D10120C9E73048B0F8C9
:101AC00000032F4A105C78B91046B0F80023FF30AD
:101AD000805C08B90120BBE72948B0F800232948F9
:101AE000805C88BB0120B3E72548B0F80003244A96
:101AF000105C042810D11046B0F80023FF30805C41
:101B0000072801D10120A3E71D48B0F800231D4894
:101B1000805CC8B901209BE71948B0F80003184A57
:101B2000105C032811D11046B0F80023FF30805C10
:101B300008B901208CE71248B0F800231148805CF6
:101B400004281BD1012083E718E00D48B0F80003FA
:101B50000B4A105C072811D11046B0F80023FF3063
:101B6000805C072801D1012072E70548B0F8002306
:101B70000448805C042801D1012069E7002067E760
:101B80006C0000206A0200200F48B0F80003401CDF
:101B90000D49085C401EB1F800130B4A5054104622
:101BA000B0F80003401C02F1FF01095C1046B0F8D8
:101BB0000023FF3081540421FF38B0F8002300F5E2
:101BC000FF708154704700006C0000200F48B0F88F
:101BD0000003401C0D49085C401CB1F800130B4A7F
:101BE00050541046B0F80003401C02F1FF01095C9C
:101BF0001046B0F80023FF3081540021FF38B0F8C0
:101C0000002300F5FF708154704700006C00002035
:101C100070B5FC211E48FEF7C0FA102208211C48AE
:101C2000FEF7B4FA1022082119482030FEF7AEFA68
:101C30000122082116481830FEF7A8FA01220821CF
:101C400013483830FEF7A2FA00240BE0002505E027
:101C5000FF200F4901F83400681CC5B2052DF7DBE1
:101C6000601CC4B2042CF1DB00240EE0002508E067
:101C7000FF21201D072202EBC000054A1154681CF9
:101C8000C5B2052DF4DB601CC4B2042CEEDB70BDC4
:101C9000720300200E48B0F80003401C0C49085C99
:101CA000001FB1F800130A4A505407211046B0F83B
:101CB0000023FF308154FF38B0F80003401C054971
:101CC000095C0348B0F800230248815470470000C3
:101CD0006C0000206A020020042808D14FF0E021A7
:101CE000096941F004014FF0E022116107E04FF073
:101CF000E021096921F004014FF0E02211617047F1
:101D00007047000010B51348006840F00100114909
:101D1000086008464068104908400E494860084677
:101D200000680E4908400B4908600846006820F426
:101D3000802008600846406820F4FE0048604FF4A8
:101D40001F008860FFF7A1FC4FF0006004490860A5
:101D500010BD0000001002400000FFF8FFFFF6FE7B
:101D600008ED00E000BFFEE7490050EAC12018BFBF
:101D700004204A0D18BF40F0010040F2FF72B2EBA0
:101D8000515F08BF40F00200012808BF05207047DE
:101D90002DE9F0414F1E00EBC7010446D1E90001D7
:101DA00015461E4637F006020DD02A463346FEF78A
:101DB000FFF97F1E04EBC703D3E90023FEF7E6FB20
:101DC00037F00602F1D1022F25D0042F13D0062FB1
:101DD00018BFBDE8F0812A463346FEF7E9F9D4E999
:101DE0000A23FEF7D3FB2A463346FEF7E1F9D4E98E
:101DF0000823FEF7CBFB2A463346FEF7D9F9D4E990
:101E00000623FEF7C3FB2A463346FEF7D1F9D4E991
:101E10000423FEF7BBFB2A463346FEF7C9F9D4E993
:101E20000223FEF7B3FB2A463346FEF7C1F9D4E995
:101E30000023BDE8F041FEF7A9BB0122FEF74DBC2F
:101E4000024A00201107FEF748BC000001FDFFFF19
:101E500002E008C8121F08C1002AFAD17047704773
:101E6000002001E001C1121F002AFBD170470000D1
:101E70000149086070470000680000202DE9F84F14
:101E800004460D4621F0004000917349814211DC67
:101E90007249884201DC06D12CB120462946BDE8B2
:101EA000F84FFFF7CABF6E48002DCCBF6D496E4991
:101EB000BDE8F88F6D49814211DD6D498142D8BF7F
:101EC0004FF0FF366DDD20462946FFF74DFF042811
:101ED00008BFFFF7B5FF20462946BDE8F88F6549E2
:101EE000654F25F00045814233DD6449814219DDAB
:101EF000002632464FF0804320462946FEF746FB37
:101F000080468A46012220462946FEF7E6FB00224B
:101F10003B46FEF7DCFB42465346FEF7BBF9044660
:101F20000D463EE001260022BA463B4620462946A1
:101F3000FEF72CFB80460F460022534620462946DA
:101F4000FEF7C5FB42463B46FEF7A4F904460D46A4
:101F500027E04B4981421BDDDFF828A10226002241
:101F6000534620462946FEF723F900223B46FEF75A
:101F70000DFB80460F460022534620462946FEF7B9
:101F8000A6FB42463B46FEF785F904460D4608E0AF
:101F9000032622462B4600203B49FEF77BF90446E8
:101FA0000D4622462B4610461946FEF701F98B4690
:101FB000824602460B46FEF7FBF8074602463348C8
:101FC00088460B4606217844FFF7E2FE52465B4600
:101FD000FEF7EEF882462E488B463A4643460521E8
:101FE0007844FFF7D5FE3A464346FEF7E1F802464D
:101FF0000B46002E504659460CDAFEF7C7FA224629
:102000002B46FEF7D5F801B022462B46BDE8F04F2F
:10201000FEF760BBFEF7BAFA22462B46FEF7C8F879
:102020001C4A7A4402EBC603D3E90023FEF74FFBB8
:1020300022462B46FEF74BFB174A7A4402EBC603B7
:10204000D3E90023FEF746FB009A002AB8BF81F0CF
:102050000041BDE8F88F0000000010440000F07F50
:10206000182D4454FB21F93FFB21F9BF0000DC3F50
:102070000000203E0000F33F0000F03F0000E63F7C
:10208000008003400000F83F0000F0BF8609000018
:1020900044090000E2080000AA08000010B56FF033
:1020A0000400FFF719FE0A4800680A49B0FBF1F086
:1020B000094908700846007800EB4001C1EBC010E8
:1020C0004FF6FF7101EAC0000449088010BD00000E
:1020D0004C00002000127A00600000206200002006
:1020E0000146114A12884A434FF0E0235A61002208
:1020F0009A611A46126942F001021A6100BF4FF05C
:10210000E022106900F001021AB100F48032002AC6
:10211000F5D04FF0E022126922F001024FF0E023E7
:102120001A6100229A617047620000200146114A3C
:1021300012784A434FF0E0235A6100229A611A460E
:10214000126942F001021A6100BF4FF0E0221069EB
:1021500000F001021AB100F48032002AF5D04FF0ED
:10216000E022126922F001024FF0E0231A610022FE
:102170009A61704760000020FEF76CFE0120FFF7B7
:102180001BFBFFF745FD76E3FD48007800286FD084
:10219000FC4800780028F6D1FEF772FBFA4890F868
:1021A000FE0230B101283BD0022873D0032836D17B
:1021B000A8E0F6494868FEF7F6F80546F44AF54BFC
:1021C000FEF71CF909D3F1494868FEF7ECF805461B
:1021D000EF4AF14BFEF7FAF804D20020EA4981F801
:1021E000FE021CE0E9490868FEF7DDF80546E84A0A
:1021F000E94BFEF7EBF804D20320E34981F8FE0235
:102200000DE0E2490868FEF7CEF80546E04AE14BEA
:10221000FEF7F4F803D20120DB4981F8FE02A8E0C2
:10222000DA490868FEF7BFF80546D94AD94BFEF7E8
:10223000E5F809D3D5490868FEF7B5F80546D44A4C
:10224000D54BFEF7C3F804D20120CF4981F8FE0236
:102250001EE0CE494868FEF7A6F80546CC4ACE4BAC
:10226000FEF7B4F805D20220C74981F8FE020FE05C
:1022700094E2C6494868FEF796F805464FF03332B7
:10228000C64BFEF7BBF803D20020BF4981F8FE021F
:102290006FE0FFE7BD494868FEF785F80546BC4A90
:1022A000BC4BFEF7ABF809D3B8494868FEF77BF89A
:1022B0000546B74AB84BFEF789F804D20220B24966
:1022C00081F8FE021DE0B1490868FEF76CF805468A
:1022D000AF4AB14BFEF77AF804D20320AA4981F83D
:1022E000FE020EE0A9490868FEF75DF805464FF0CA
:1022F0003332AA4BFEF782F803D20120A24981F8BB
:10230000FE0236E0A1490868FEF74DF80546A04AEE
:10231000A04BFEF773F809D39C490868FEF743F811
:1023200005469B4A9C4BFEF751F804D20320964980
:1023300081F8FE021CE095494868FEF734F805462E
:10234000934A954BFEF742F804D202208E4981F859
:10235000FE020DE08D494868FEF725F805468C4AD7
:102360008C4BFEF74BF803D20020874981F8FE0220
:1023700000BF00BF844890F8FE0230B101283CD075
:10238000022869D0032837D196E000242FE07E4848
:10239000B0F80003401C7C49FF31085C10B9FFF71E
:1023A00079FC22E07848B0F80003401C7649085CCC
:1023B000B1F80013744A50541046B0F80003401CA2
:1023C00002F1FF01085C401EC1B21046B0F80023C4
:1023D000FF308154FF38B0F80003401C7049095C9D
:1023E0006948B0F800236E488154601CC4B2664846
:1023F00090F8FD02A042CADC8CE06348B0F800030C
:10240000401C6749085C042802D1FFF7DFFB22E08B
:102410005D48B0F80003401C5B49085CB1F800134C
:10242000594A50541046B0F80003401C02F1FF0115
:10243000095C1046B0F80023FF308154FF38B0F833
:102440000003401C5649085C401CC1B24E48B0F81D
:102450000023534881545DE04B48B0F80003401C12
:102460004949FF31085C072802D1FFF783F922E0D0
:102470004548B0F80003401C4349085CB1F800131C
:10248000414A50541046B0F80003401C02F1FF01CD
:10249000085C401CC1B21046B0F80023FF308154E4
:1024A000FF38B0F80003401C3D49095C3648B0F8DD
:1024B00000233B4881542DE03348B0F80003401C12
:1024C0003749085C10B9FFF75FFB22E02E48B0F8EF
:1024D0000003401C2C49085CB1F800132A4A5054F0
:1024E0001046B0F80003401C02F1FF01095C1046E1
:1024F000B0F80023FF308154FF38B0F80003401CCF
:102500002749085C401EC1B21F48B0F80023244888
:10251000815400BF00BFFFF741FA00287ED1FFF7CA
:10252000BFF91948B0F802034FF47A7190FBF1F249
:1025300001FB12021448B0F800031349085C64213F
:1025400048431149B1F800331549C95C01EB8101D9
:1025500000EB41010C48B0F80033FF30C05C084488
:1025600080B282421ED1084890F8FD02401C064904
:1025700081F8FD020120FFF71FF9FFF791F914E040
:1025800001000020020000206C000020B4030020A5
:102590009A9999999999C93F9999C9BF3333D33F6A
:1025A0006A0200200020FFF707F9B348FEF7A6FCF7
:1025B00080210020FEF782FD0020FEF753FD012060
:1025C000FEF750FD0220FEF74DFD0320FEF74AFD09
:1025D00086210020FEF772FD4C20FEF743FD6520AA
:1025E000FEF740FD6E20FEF73DFD3A20FEF73AFD76
:1025F000A24890F8FD02642190FBF1F03030C5B2A2
:102600002846FEF72FFD9D4890F8FD020A2190FB19
:10261000F1F090FBF1F201FB120000E066E03030D7
:10262000C5B22846FEF71EFD944890F8FD020A2127
:1026300090FBF1F201FB12003030C5B22846FEF7E4
:1026400011FDC0210020FEF739FD0420FEF70AFD30
:102650000520FEF707FD0620FEF704FD0720FEF724
:1026600001FDC6210020FEF729FD4C20FEF7FAFCF3
:102670007620FEF7F7FC3A20FEF7F4FC8049097853
:102680003131C8B2FEF7EEFCCB210020FEF716FD7B
:102690004220FEF7E7FC3A20FEF7E4FC774890F88A
:1026A0000403642190FBF1F03030C5B22846FEF7F8
:1026B000D9FC724890F804030A2190FBF1F090FBDA
:1026C000F1F201FB12003030C5B22846FEF7CAFC19
:1026D0006A4890F804030A2190FBF1F201FB120012
:1026E0003030C5B22846FEF7BDFC3EE0634890F8A6
:1026F000FD02624991F80413884205DD5F4890F8B5
:10270000FD120020FEF7C8F980210020FEF7D6FC5C
:102710004720FEF7A7FC6120FEF7A4FC6D20FEF722
:10272000A1FC6520FEF79EFCC0210020FEF7C6FC40
:102730004F20FEF797FC7620FEF794FC6520FEF70D
:1027400091FC7220FEF78EFC01204E49087000209B
:102750004D49087008204D4908604FF4FA70FFF7A2
:10276000BFFC08204949091D08604448B0F800032F
:1027700018B9FC204149A1F800034048B0F8000313
:10278000401E3E49A1F80003FFF742FA40493C4A87
:10279000127831F81200FFF7A3FC6CE080210020D2
:1027A000FEF78CFC5020FEF75DFC4120FEF75AFC42
:1027B0005520FEF757FC5320FEF754FCC0210020A3
:1027C000FEF77CFC4520FEF74DFCFF20FEF74AFC9F
:1027D000FF20FEF747FCFF20FEF744FC47E0802186
:1027E0000020FEF76BFC5020FEF73CFC4120FEF77A
:1027F00039FC5520FEF736FC5320FEF733FCC02190
:102800000020FEF75BFC4520FEF72CFCFF20FEF7C6
:1028100029FCFF20FEF726FCFF20FEF723FC4FF4E7
:102820007A70FFF75DFC80210020FEF747FC002056
:10283000FEF718FC0120FEF715FC0220FEF712FC43
:102840000320FEF70FFCC0210020FEF737FC042018
:10285000FEF708FC0520FEF705FC0620FEF702FC4B
:102860000720FEF7FFFB4FF47A70FFF739FC0948A9
:1028700000780028B3D087E4720300206C000020A9
:10288000000000200200002003000020100C014086
:1028900044000020010000202DE9F04106460F46CB
:1028A000FDF732FF041E0D4618BF0120284320F01B
:1028B0000040C0F17F6000F1E040C00F0ED0301C3E
:1028C00018BF0120384320F00040C0F17F6000F1C4
:1028D000E040C00F04BF0120FFF7CAFA2046294696
:1028E000BDE8F081000000004FBB610567ACDD3F33
:1028F000182D4454FB21E93F9BF681D20B73EF3F27
:10290000182D4454FB21F93FE2652F227F2B7A3C9E
:10291000075C143326A6813CBDCBF07A8807703C57
:10292000075C143326A6913CC4EB98999999C9BFCA
:10293000711623FEC671BCBF6D9A74AFF2B0B3BFFF
:102940009AFDDE522DDEADBF2F6C6A2C44B4A2BFBF
:102950000D5555555555D53FFF8300922449C23F2B
:102960006E204CC5CD45B73F513DD0A0660DB13F5F
:10297000EB0D76244B7BA93F11DA22E33AAD903F71
:10298000A0290008000000206C000000501E000874
:102990000C2A00086C0000205C070000601E000884
:1029A00000010001181807080808070000000000CF
:1029B000FF0000000000000E00FF00000000FF000C
:1029C0000E00FF000000FFF5FBF1FF0000FE08FE17
:1029D0000A0AFF00000400FF000A1100001F111F77
:1029E00011111F00E803F401FA00640000A24A0478
:1029F00000000000000000000102030406070809AF
:0C2A0000000000000000000000000000CA
:0400000508000145A9
:00000001FF
